:100B5C00426C7565746F6F746820416E64726F6956
:100B6C0064204175746F6D6174696F6E2076696174
:100B7C0020504320616E6420416E64726F69642062
:100B8C000A2009090944657369676E6564206279F6
:100B9C00204E657574726F4E20537472696B65725A
:100BAC0020612E6B2E61204E2E5372696E69766118
:100BBC0073200A0A20090909546F205475726E209B
:100BCC004F6E2052656C61792D312073656E6420F7
:100BDC00274127200A20090909746F207475726E49
:100BEC00206974206F66662073656E642027612708
:100BFC00200A20090909466F722052656C61792D13
:100C0C003220274227204F6E20276227204F66660E
:100C1C00200A20090909466F722052656C61792DF2
:100C2C003320274327204F6E20276327204F6666EB
:100C3C00200A20090909466F722052656C61792DD2
:100C4C003420274427204F6E20276427204F6666C8
:100C5C00200A20090909466F722052656C61792DB2
:100C6C003520274527204F6E20276527204F6666A5
:100C7C00200A20090909466F722052656C61792D92
:100C8C003620274627204F6E20276627204F666682
:100C9C00200A20090909466F722052656C61792D72
:100CAC003720274727204F6E20276727204F66665F
:100CBC00200A20090909466F722052656C61792D52
:100CCC003820274827204F6E20276827204F66663C
:100CDC00200A2009090953656E64202749272074CE
:100CEC006F207475726E204F6E20616C6C200A2020
:100CFC0009090953656E642027692720746F2074D5
:100D0C0075726E204F666620616C6C200A20005252
:100D1C00656C61792D31206973204F4E0A00526544
:100D2C006C61792D31206973204F46460A0052655B
:100D3C006C61792D32206973204F4E0A0052656C1C
:100D4C0061792D32206973204F46460A0052656C3A
:100D5C0061792D33206973204F4E0A0052656C6106
:100D6C00792D33206973204F46460A0052656C6119
:100D7C00792D34206973204F4E0A0052656C6179CD
:100D8C002D34206973204F46460A0052656C6179F8
:100D9C002D35206973204F4E0A0052656C61792DF8
:100DAC0035206973204F46460A0052656C61792DD7
:100DBC0036206973204F4E0A0052656C61792D36CE
:100DCC00206973204F46460A0052656C61792D37B5
:100DDC00206973204F4E0A0052656C61792D3720C3
:100DEC006973204F46460A0052656C61792D382094
:100DFC006973204F4E0A0052656C61792D38206959
:100E0C0073204F46460A00414C4C2052656C617968
:100E1C007320617265204F4E0A00414C4C20526584
:0E0E2C006C61797320617265204F46460A00A2
:100E3A00759852758920758DFD758BFDD28EE4F5F6
:100E4A00A0C2903098FD7BFF7A0B795C1208623061
:100E5A0098FD859908E508120F660E9E410EB44268
:100E6A000EC9430EDD440EF1450F05460F19470F13
:100E7A002D480F44490EA9610EBF620ED3630EE7D7
:100E8A00640EFB650F0F660F23670F37680F5269F1
:100E9A0000000F5ED2A07BFF7A0D791B020F3FC2C2
:100EAA00A07BFF7A0D792A020F3FD2A17BFF7A0D30
:100EBA00793A020F3FC2A17BFF7A0D79498076D237
:100ECA00A27BFF7A0D7959806CC2A27BFF7A0D79D9
:100EDA00688062D2A37BFF7A0D79788058C2A37B9F
:100EEA00FF7A0D7987804ED2A47BFF7A0D7997809D
:100EFA0044C2A47BFF7A0D79A6803AD2A57BFF7AF9
:100F0A000D79B68030C2A57BFF7A0D79C58026D2CD
:100F1A00A67BFF7A0D79D5801CC2A67BFF7A0D7954
:100F2A00E48012D2A77BFF7A0D79F48008C2A77BEE
:100F3A00FF7A0E7903120862801A7BFF7A0E791300
:100F4A0012086275A0FF800C7BFF7A0E79261208C0
:0C0F5A0062E4F5A0C298E4F508020E590C
:0300000002101BD0
:0C101B00787FE4F6D8FD758121020E3AC2
:100F6600D083D082F8E4937012740193700DA3A31A
:100F760093F8740193F5828883E47374029368602E
:060F8600EFA3A3A380DF2E
:10080000E518240CF8E60518227809300702780C60
:10081000E475F001120FE4020F8C2000EB7F2ED262
:10082000008018EF540F2490D43440D4FF30040BD0
:10083000EF24BFB41A0050032461FFE519600215CC
:1008400019051CE51C7002051B30070D7809E475BD
:10085000F001120FE4EF020FD2020FF47403D2077B
:100860008003E4C207F5188B098A0A890BE4F5199D
:10087000F51BF51CE51960077F2012083B80F57514
:100880001AFFC201C200C202C203C205C206C208E8
:10089000120809FF700D3007057F0012084CAF1CCD
:1008A000AE1B22B4255FC2D5C204120809FF24D0B2
:1008B000B40A00501A75F00A781930D50508B6FF49
:1008C0000106C6A426F620D5047002D20380D924DE
:1008D000CFB41A00EF5004C2E5D204020A4CD20190
:1008E00080C6D20080C0D20280BCD2D580BAD205E8
:1008F00080B47F2012083B2002077401B519004024
:10090000F1120800FF12083B020874D208D20680D8
:1009100095120800FB120800FA120800F94A4B7001
:1009200006791D7A0B7BFF20022EE519602A7E00D6
:100930008E82758300120FA560060EEE651A70F0A8
:10094000C2D5EBC0E0EAC0E0E9C0E0EE120A93D005
:10095000E0F9D0E0FAD0E0FB120F8CFF60AAEBC008
:10096000E0EAC0E0E9C0E012083BD0E02401F9D0A1
:10097000E03400FAD0E0FBE51A0460DCD51AD98037
:10098000877BFF7A0A798FD202809C791080027966
:1009900008C206C2088008D2D5790A8004790AC242
:1009A000D5E51A047002F51AE4FAFDFEFF120800FC
:1009B000FC7B08200113120800FD7B1030000A1296
:1009C0000800FE120800FF7B20EC3382D592D55040
:1009D00013C3E43000069FFFE49EFEE42001039D64
:1009E000FDE49CFCE4CBF8C201EC700CCFCECDCC86
:1009F000E824F8F870F38017C3EF33FFEE33FEED11
:100A000033FDEC33FCEB33FB994002FB0FD8E9EBF1
:100A1000300105F8D0E0C448B201C0E00AEC4D4E08
:100A20004F78207B0070C2EAB51A0040BCC0E012CB
:100A30000A95D0F0D0E0200104C4C0E0C4B201C0E7
:100A4000F0120824D0F0D5F0EB020874120F6609FA
:100A50001153098B5808E24C08DE42098F4F099761
:0F0A60004409974908F743099D550981460981C3
:100A6F00450981470B3D5008E62D08EA2E090D2B4D
:100A7F0008EE23090B200B262A08A64800000905BB
:100A8F003F3F3F00790AA2D5200314300509B91062
:100A9F00020404B9080104A2D52006025001042063
:100AAF0002689202B519005034C0E07F203003195C
:100ABF007F30A20272067205500F120AECC202C2F8
:100ACF0006C205C2087F30800F300503E9C0E0126F
:100ADF00083B300503D0E0F9D0E0B519CC3005174D
:100AEF007F30B9100C12083B7F583004077F788095
:100AFF0003B9080312083B3002057F2D02083B7F24
:100B0F00202008F87F2B2006F322920280CF286E38
:100B1F00756C6C2900D2011208003001F8C20178FF
:100B2F001930D50108F60208A62D5043495812086E
:100B3F00002403B405004001E4900B389312082CF5
:0D0B4F00743A12082CD20375190402098BA8
:100F8C00BB010689828A83E0225002E722BBFE0263
:090F9C00E32289828A83E4932296
:100FA500BB010CE58229F582E5833AF583E0225001
:100FB50006E92582F8E622BBFE06E92582F8E2224B
:0D0FC500E58229F582E5833AF583E4932265
:100FD200BB010689828A83F0225002F722BBFE01FE
:020FE200F322F8
:100FE400FAE6FB0808E6F925F0F618E6CA3AF6220E
:100FF400EFB40A07740D120FFF740A309811A89900
:10100400B8130CC2983098FDA899C298B811F6305C
:0710140099FDC299F5992234
:00000001FF
